{
  "_format": "hh-sol-artifact-1",
  "contractName": "SharedWallet",
  "sourceName": "contracts/sharedWallet.sol",
  "abi": [
    {
      "inputs": [],
      "stateMutability": "nonpayable",
      "type": "constructor"
    },
    {
      "inputs": [
        {
          "internalType": "address",
          "name": "",
          "type": "address"
        }
      ],
      "name": "MemberBalance",
      "outputs": [
        {
          "internalType": "uint256",
          "name": "",
          "type": "uint256"
        }
      ],
      "stateMutability": "view",
      "type": "function"
    },
    {
      "inputs": [
        {
          "internalType": "address payable",
          "name": "_to",
          "type": "address"
        }
      ],
      "name": "deleteMembership",
      "outputs": [],
      "stateMutability": "payable",
      "type": "function"
    },
    {
      "inputs": [],
      "name": "getMemberBalance",
      "outputs": [
        {
          "internalType": "uint256",
          "name": "",
          "type": "uint256"
        }
      ],
      "stateMutability": "view",
      "type": "function"
    },
    {
      "inputs": [],
      "name": "getWalletBalance",
      "outputs": [
        {
          "internalType": "uint256",
          "name": "",
          "type": "uint256"
        }
      ],
      "stateMutability": "view",
      "type": "function"
    },
    {
      "inputs": [],
      "name": "putMoney",
      "outputs": [],
      "stateMutability": "payable",
      "type": "function"
    },
    {
      "inputs": [],
      "name": "takeMembership",
      "outputs": [],
      "stateMutability": "payable",
      "type": "function"
    },
    {
      "inputs": [
        {
          "internalType": "address payable",
          "name": "_to",
          "type": "address"
        },
        {
          "internalType": "uint256",
          "name": "_total",
          "type": "uint256"
        }
      ],
      "name": "takeMoney",
      "outputs": [],
      "stateMutability": "payable",
      "type": "function"
    },
    {
      "inputs": [],
      "name": "walletAddress",
      "outputs": [
        {
          "internalType": "address",
          "name": "",
          "type": "address"
        }
      ],
      "stateMutability": "view",
      "type": "function"
    }
  ],
  "bytecode": "0x608060405234801561001057600080fd5b50336000806101000a81548173ffffffffffffffffffffffffffffffffffffffff021916908373ffffffffffffffffffffffffffffffffffffffff160217905550610a84806100606000396000f3fe60806040526004361061007b5760003560e01c80636ad5b3ea1161004e5780636ad5b3ea146100fc578063c74acede14610127578063d0aa7f7c14610131578063e48de64b1461014d5761007b565b8063329a27e71461008057806342a01329146100ab5780634bc3b8c3146100b557806369105f97146100d1575b600080fd5b34801561008c57600080fd5b5061009561018a565b6040516100a291906108d6565b60405180910390f35b6100b3610192565b005b6100cf60048036038101906100ca9190610646565b610233565b005b3480156100dd57600080fd5b506100e661038a565b6040516100f391906108d6565b60405180910390f35b34801561010857600080fd5b506101116103d1565b60405161011e919061083b565b60405180910390f35b61012f6103f5565b005b61014b6004803603810190610146919061066f565b610491565b005b34801561015957600080fd5b50610174600480360381019061016f919061061d565b6105c6565b60405161018191906108d6565b60405180910390f35b600047905090565b66038d7ea4c6800034146101db576040517f08c379a00000000000000000000000000000000000000000000000000000000081526004016101d290610896565b60405180910390fd5b34600160003373ffffffffffffffffffffffffffffffffffffffff1673ffffffffffffffffffffffffffffffffffffffff168152602001908152602001600020600082825461022a9190610902565b92505081905550565b66038d7ea4c68000600160003373ffffffffffffffffffffffffffffffffffffffff1673ffffffffffffffffffffffffffffffffffffffff1681526020019081526020016000205410156102bc576040517f08c379a00000000000000000000000000000000000000000000000000000000081526004016102b3906108b6565b60405180910390fd5b8073ffffffffffffffffffffffffffffffffffffffff166108fc600160003373ffffffffffffffffffffffffffffffffffffffff1673ffffffffffffffffffffffffffffffffffffffff168152602001908152602001600020549081150290604051600060405180830381858888f19350505050158015610341573d6000803e3d6000fd5b506000600160003373ffffffffffffffffffffffffffffffffffffffff1673ffffffffffffffffffffffffffffffffffffffff1681526020019081526020016000208190555050565b6000600160003373ffffffffffffffffffffffffffffffffffffffff1673ffffffffffffffffffffffffffffffffffffffff16815260200190815260200160002054905090565b60008054906101000a900473ffffffffffffffffffffffffffffffffffffffff1681565b6000341415610439576040517f08c379a000000000000000000000000000000000000000000000000000000000815260040161043090610856565b60405180910390fd5b34600160003373ffffffffffffffffffffffffffffffffffffffff1673ffffffffffffffffffffffffffffffffffffffff16815260200190815260200160002060008282546104889190610902565b92505081905550565b66038d7ea4c68000600160003373ffffffffffffffffffffffffffffffffffffffff1673ffffffffffffffffffffffffffffffffffffffff168152602001908152602001600020546104e39190610958565b811115610525576040517f08c379a000000000000000000000000000000000000000000000000000000000815260040161051c90610876565b60405180910390fd5b80600160003373ffffffffffffffffffffffffffffffffffffffff1673ffffffffffffffffffffffffffffffffffffffff16815260200190815260200160002060008282546105749190610958565b925050819055508173ffffffffffffffffffffffffffffffffffffffff166108fc829081150290604051600060405180830381858888f193505050501580156105c1573d6000803e3d6000fd5b505050565b60016020528060005260406000206000915090505481565b6000813590506105ed81610a09565b92915050565b60008135905061060281610a20565b92915050565b60008135905061061781610a37565b92915050565b60006020828403121561062f57600080fd5b600061063d848285016105de565b91505092915050565b60006020828403121561065857600080fd5b6000610666848285016105f3565b91505092915050565b6000806040838503121561068257600080fd5b6000610690858286016105f3565b92505060206106a185828601610608565b9150509250929050565b6106b48161098c565b82525050565b60006106c76029836108f1565b91507f596f75206e65656420746f206465706f73697420736f6d6520616d6f756e742060008301527f6f66206d6f6e65792100000000000000000000000000000000000000000000006020830152604082019050919050565b600061072d601d836108f1565b91507f596f75206861766520696e73756666696369656e742062616c616e63650000006000830152602082019050919050565b600061076d6040836108f1565b91507f596f75206861766520746f206465706f73697420302e3030312065746820746f60008301527f206265636f6d652061204d656d626572206f6620746869732077616c6c6574216020830152604082019050919050565b60006107d36023836108f1565b91507f596f7520617265206e6f742061204d656d626572206f6620746869732077616c60008301527f6c657400000000000000000000000000000000000000000000000000000000006020830152604082019050919050565b610835816109d0565b82525050565b600060208201905061085060008301846106ab565b92915050565b6000602082019050818103600083015261086f816106ba565b9050919050565b6000602082019050818103600083015261088f81610720565b9050919050565b600060208201905081810360008301526108af81610760565b9050919050565b600060208201905081810360008301526108cf816107c6565b9050919050565b60006020820190506108eb600083018461082c565b92915050565b600082825260208201905092915050565b600061090d826109d0565b9150610918836109d0565b9250827fffffffffffffffffffffffffffffffffffffffffffffffffffffffffffffffff0382111561094d5761094c6109da565b5b828201905092915050565b6000610963826109d0565b915061096e836109d0565b925082821015610981576109806109da565b5b828203905092915050565b6000610997826109b0565b9050919050565b60006109a9826109b0565b9050919050565b600073ffffffffffffffffffffffffffffffffffffffff82169050919050565b6000819050919050565b7f4e487b7100000000000000000000000000000000000000000000000000000000600052601160045260246000fd5b610a128161098c565b8114610a1d57600080fd5b50565b610a298161099e565b8114610a3457600080fd5b50565b610a40816109d0565b8114610a4b57600080fd5b5056fea264697066735822122089d516cc1ec691131cb64dc513436144da91f36788cc54ee51fe7dd1ff67ae6a64736f6c63430008000033",
  "linkReferences": {},
  "deployedLinkReferences": {}
}